:020000040800F2
:10000000FF4F002021120008691200086912000841
:100010006912000869120008691200080000000057
:10002000000000000000000000000000691200084D
:100030006912000800000000691200086912000837
:1000400069120008691200086912000869120008A4
:100050006912000869120008691200086912000894
:100060006912000869120008691200086912000884
:100070006912000869120008691200086912000874
:100080006912000869120008691200086912000864
:100090006912000869120008691200086912000854
:1000A0006912000869120008691200086912000844
:1000B0006912000869120008691200086912000834
:1000C0006912000869120008691200086912000824
:1000D0006912000869120008691200086912000814
:1000E0006912000869120008691200080000000087
:1000F0000000000000000000000000000000000000
:0C01000000000000000000005FF808F1A3
:10010C0010B5054C237833B9044B13B10448AFF345
:10011C0000800123237010BD40040020000000006B
:10012C006C120008084B10B51BB108490848AFF316
:10013C0000800848036803B910BD074B002BFBD0A7
:10014C00BDE81040184700BF000000004404002028
:10015C006C120008400400200000000080B400AFC6
:10016C00134A134B1B6843F0010313601049104BE7
:10017C005A68104B13404B600D4A0D4B1B6823F013
:10018C00847323F480331360094A094B1B6823F4EE
:10019C0080231360064A064B5B6823F4FE0353600E
:1001AC00034B4FF41F029A6000BFBD4680BC7047E2
:1001BC00001002400000FFF880B483B000AF7860FC
:1001CC00134A134B1B6823F480331360104A104BF3
:1001DC001B6823F4802313607B68B3F5803F03D046
:1001EC00B3F5802F07D00DE0094A094B1B6843F487
:1001FC008033136006E0064A054B1B6843F4A023CA
:10020C00136000BF00BF0C37BD4680BC704700BFF9
:10021C000010024080B582B000AF00233B60002389
:10022C00FB710023BB71312000F00EFB0346BB7148
:10023C003B6801333B603B68B3F5A06F02D0BB79E0
:10024C00002BF0D0312000F0FFFA0346002B02D037
:10025C000123FB7101E00023FB71FB791846083781
:10026C00BD4680BD80B485B000AF0346FB71002352
:10027C00FB600A4B1B68FB60FB6823F0F803FB6018
:10028C00FB79DB00FA681343FB60044AFB681360DC
:10029C0000BF1437BD4680BC704700BF0010024041
:1002AC0080B483B000AF0346FB71044AFB79136042
:1002BC0000BF0C37BD4680BC704700BF00004242F7
:1002CC0080B485B000AF786039600023FB600A4BC6
:1002DC005B68FB60FB6823F47C13FB607A683B680B
:1002EC001343FA681343FB60034AFB68536000BF77
:1002FC001437BD4680BC70470010024080B483B0F8
:10030C0000AF0346FB71044AFB79136000BF0C3746
:10031C00BD4680BC704700BF6000424280B485B0CF
:10032C0000AF78600023FB60094B5B68FB60FB68E7
:10033C0023F00303FB60FA687B681343FB60044AF9
:10034C00FB68536000BF1437BD4680BC704700BFCC
:10035C000010024080B400AF044B5B68DBB203F0CA
:10036C000C03DBB21846BD4680BC7047001002403F
:10037C0080B485B000AF78600023FB60094B5B68EC
:10038C00FB60FB6823F0F003FB60FA687B681343A7
:10039C00FB60044AFB68536000BF1437BD4680BC49
:1003AC00704700BF0010024080B485B000AF786089
:1003BC000023FB60094B5B68FB60FB6823F4E06384
:1003CC00FB60FA687B681343FB60044AFB6853606C
:1003DC0000BF1437BD4680BC704700BF0010024000
:1003EC0080B485B000AF78600023FB60094B5B687C
:1003FC00FB60FB6823F46053FB607B68DB00FA68EE
:10040C001343FB60034AFB68536000BF1437BD46BF
:10041C0080BC70470010024080B483B000AF03462C
:10042C000A46FB711346BB71BB79002B08D00C49F3
:10043C000B4B1B78DAB2FB791343DBB20B7009E080
:10044C000749074B1B78DAB2FB79DB43DBB213406D
:10045C00DBB20B7000BF0C37BD4680BC704700BFD1
:10046C000910024080B483B000AF7860034A7B6807
:10047C00136000BF0C37BD4680BC7047D8004242A9
:10048C0080B485B000AF78600023FB60094B5B68DB
:10049C00FB60FB6823F44043FB60FA687B68134302
:1004AC00FB60044AFB68536000BF1437BD4680BC38
:1004BC00704700BF0010024080B483B000AF034609
:1004CC00FB710C4B00221A700A4B00221A70FB793C
:1004DC00012B02D0042B04D007E0064B01221A702A
:1004EC0003E0044B05221A7000BF00BF0C37BD4659
:1004FC0080BC70472010024080B483B000AF03462C
:10050C00FB71044AFB79136000BF0C37BD4680BCFD
:10051C00704700BF8004424280B483B000AF786063
:10052C000549054B1A6A7B6813430B6200BF0C37F5
:10053C00BD4680BC704700BF0010024080B483B041
:10054C0000AF0346FB71044AFB79136000BF0C3704
:10055C00BD4680BC704700BF3C04424280B487B0AB
:10056C0000AF786000237B6100233B610023FB60BC
:10057C000023BB604C4B5B6803F00C037B617B6915
:10058C00042B07D0082B09D0002B33D17B68474AAA
:10059C001A6033E07B68454A1A602FE0424B5B6877
:1005AC0003F470133B61404B5B6803F48033FB60D6
:1005BC003B699B0C02333B61FB68002B06D13B690A
:1005CC003B4A02FB03F27B681A6017E0364B5B6810
:1005DC0003F40033002B06D03B69354A02FB03F2CF
:1005EC007B681A600AE03B69304A02FB03F27B68C5
:1005FC001A6003E07B682D4A1A6000BF2A4B5B68C7
:10060C0003F0F0037B617B691B097B61294A7B69E1
:10061C0013441B78DBB2BB607B681A68BB68DA409A
:10062C007B685A60204B5B6803F4E0637B617B69F9
:10063C001B0A7B611F4A7B6913441B78DBB2BB60CE
:10064C007B685A68BB68DA407B689A60164B5B68BB
:10065C0003F460537B617B69DB0A7B61154A7B6920
:10066C0013441B78DBB2BB607B685A68BB68DA400A
:10067C007B68DA600C4B5B6803F440437B617B69FD
:10068C009B0B7B610C4A7B6913441B78DBB2BB6010
:10069C007B68DA68BB68B2FBF3F27B681A6100BF57
:1006AC001C37BD4680BC70470010024000127A0017
:1006BC0000093D00000000201000002080B483B031
:1006CC0000AF78600B46FB70FB78002B06D0094915
:1006DC00084B5A697B6813434B6106E00549054B8F
:1006EC005A697B68DB4313404B6100BF0C37BD4636
:1006FC0080BC70470010024080B483B000AF7860BB
:10070C000B46FB70FB78002B06D00949084B9A6905
:10071C007B6813438B6106E00549054B9A697B683E
:10072C00DB4313408B6100BF0C37BD4680BC704768
:10073C000010024080B483B000AF78600B46FB70B1
:10074C00FB78002B06D00949084BDA697B68134308
:10075C00CB6106E00549054BDA697B68DB43134046
:10076C00CB6100BF0C37BD4680BC70470010024007
:10077C0080B483B000AF78600B46FB70FB78002B25
:10078C0006D00949084BDA687B681343CB6006E056
:10079C000549054BDA687B68DB431340CB6000BF2F
:1007AC000C37BD4680BC70470010024080B483B04B
:1007BC0000AF78600B46FB70FB78002B06D0094924
:1007CC00084B1A697B6813430B6106E00549054B1E
:1007DC001A697B68DB4313400B6100BF0C37BD46C5
:1007EC0080BC70470010024080B483B000AF034659
:1007FC00FB71044AFB79136000BF0C37BD4680BC0B
:10080C00704700BF4004424280B483B000AF03463F
:10081C00FB71044AFB79136000BF0C37BD4680BCEA
:10082C00704700BF4C00424280B483B000AF034617
:10083C00FB71044AFB79137000BF0C37BD4680BCBA
:10084C00704700BF0710024080B487B000AF03466A
:10085C00FB710023FB6000237B610023FB74FB799D
:10086C005B09DBB2FB60FB68012B03D1124B1B68ED
:10087C007B6109E0FB68022B03D10F4B1B6A7B6188
:10088C0002E00D4B5B6A7B61FB7903F01F03FB609D
:10089C007A69FB6822FA03F303F00103002B02D000
:1008AC000123FB7401E00023FB74FB7C18461C370E
:1008BC00BD4680BC704700BF0010024080B400AF42
:1008CC00044A044B5B6A43F08073536200BFBD461D
:1008DC0080BC70470010024080B485B000AF034666
:1008EC00FB710023FB73084B9A68FB791340002BB8
:1008FC0002D00123FB7301E00023FB73FB7B184642
:10090C001437BD4680BC70470010024080B483B0E1
:10091C0000AF0346FB71044AFB79137000BF0C3720
:10092C00BD4680BC704700BF0A10024080B582B043
:10093C0000AF78607B682F4A934208D101210420D4
:10094C00FFF716FF00210420FFF712FF4EE07B6833
:10095C00294A934208D101210820FFF709FF002101
:10096C000820FFF705FF41E07B68244A934208D139
:10097C0001211020FFF7FCFE00211020FFF7F8FEEC
:10098C0034E07B681E4A934208D101212020FFF7F6
:10099C00EFFE00212020FFF7EBFE27E07B68194AD1
:1009AC00934208D101214020FFF7E2FE00214020B4
:1009BC00FFF7DEFE1AE07B68134A934208D101214F
:1009CC008020FFF7D5FE00218020FFF7D1FE0DE03F
:1009DC007B680E4A934209D101214FF48070FFF7D6
:1009EC00C7FE00214FF48070FFF7C2FE00BF08372E
:1009FC00BD4680BD00080140000C014000100140C4
:100A0C000014014000180140001C0140002001406E
:100A1C0080B500AF01210120FFF7AAFE00210120C3
:100A2C00FFF7A6FE00BF80BD80B489B000AF786030
:100A3C0039600023FB6100233B610023BB61002371
:100A4C00FB6000237B610023BB603B68DB7803F019
:100A5C000F03FB613B68DB7803F01003002B05D020
:100A6C003B689B781A46FB691343FB613B681B8808
:100A7C00DBB2002B44D07B681B687B610023BB611D
:100A8C0038E00122BB6902FA03F3FB603B681B8868
:100A9C001A46FB6813403B613A69FB689A4226D1BF
:100AAC00BB699B00FB600F22FB6802FA03F3BB607F
:100ABC00BB68DB437A6913407B61FA69FB6802FA15
:100ACC0003F37A6913437B613B68DB78282B05D1F0
:100ADC000122BB699A407B685A6108E03B68DB786D
:100AEC00482B04D10122BB699A407B681A61BB690F
:100AFC000133BB61BB69072BC3D97B687A691A6068
:100B0C003B681B88FF2B46D97B685B687B610023A5
:100B1C00BB613AE0BB690833012202FA03F3FB60C4
:100B2C003B681B881A46FB6813403B613A69FB68BB
:100B3C009A4227D1BB699B00FB600F22FB6802FA2B
:100B4C0003F3BB60BB68DB437A6913407B61FA69D2
:100B5C00FB6802FA03F37A6913437B613B68DB7829
:100B6C00282B05D1BB69083301229A407B685A6156
:100B7C003B68DB78482B05D1BB69083301229A40CE
:100B8C007B681A61BB690133BB61BB69072BC1D997
:100B9C007B687A695A6000BF2437BD4680BC7047B9
:100BAC0080B483B000AF78607B684FF6FF721A8018
:100BBC007B6802229A707B680422DA7000BF0C37C3
:100BCC00BD4680BC704700BF80B485B000AF786074
:100BDC000B467B800023FB737B689A687B881340F1
:100BEC00002B02D00123FB7301E00023FB73FB7B82
:100BFC0018461437BD4680BC704700BF80B483B024
:100C0C0000AF78607B689B689BB218460C37BD467A
:100C1C0080BC704780B485B000AF78600B467B8099
:100C2C000023FB737B68DA687B881340002B02D0AF
:100C3C000123FB7301E00023FB73FB7B1846143785
:100C4C00BD4680BC704700BF80B483B000AF7860F5
:100C5C007B68DB689BB218460C37BD4680BC70477E
:100C6C0080B483B000AF78600B467B807A887B6859
:100C7C001A6100BF0C37BD4680BC704780B483B08E
:100C8C0000AF78600B467B807A887B685A6100BF26
:100C9C000C37BD4680BC704780B483B000AF786021
:100CAC000B467B8013467B707B78002B03D07A88B5
:100CBC007B681A6102E07A887B685A6100BF0C3746
:100CCC00BD4680BC704700BF80B483B000AF786075
:100CDC000B467B807A887B68DA6000BF0C37BD4698
:100CEC0080BC704780B485B000AF78600B467B80C9
:100CFC004FF48033FB607B88FA681343FB607B689E
:100D0C00FA689A617A887B689A617B68FA689A615A
:100D1C007B689B69FB607B689B69FB6000BF143739
:100D2C00BD4680BC704700BF80B485B000AF0346A1
:100D3C000A46FB711346BB710023FB600C4B1B680E
:100D4C00FB60FA684FF680731340FB60FB791B0164
:100D5C00FA681343FB60BB79FA681343FB60044ADF
:100D6C00FB68136000BF1437BD4680BC704700BFE2
:100D7C000000014080B483B000AF0346FB71044A0D
:100D8C00FB79136000BF0C37BD4680BC704700BFB9
:100D9C001C00204280B487B000AF78600B46FB701B
:100DAC0000233B610023FB6000237B610023BB60BD
:100DBC007B68002B03DA2E4BDB697B6102E02C4B4A
:100DCC005B687B617B681B0C03F00F03BB607B686B
:100DDC009BB23B617B6803F44013B3F5401F0AD10F
:100DEC007B6923F070637B61214A214B5B6823F0A4
:100DFC007063536021E07B6803F48013002B0ED0EA
:100E0C000322BB6802FA03F3FB60FB68DB437A69DD
:100E1C0013407B617B6943F070637B610DE07B6801
:100E2C005B0D1B013A6902FA03F3DB437A69134049
:100E3C007B617B6943F070637B61FB78002B08D08E
:100E4C007B685B0D1B013A6902FA03F37A69134361
:100E5C007B617B68002B03DA054A7B69D36102E076
:100E6C00034A7B69536000BF1C37BD4680BC70478A
:100E7C000000014090B484B000AF03460A46FB71F9
:100E8C001346BB710023FB60BB7903F003039B008B
:100E9C000F2202FA03F3FB601649BB799B08DBB205
:100EAC001846144ABB799B08DBB2023352F8232054
:100EBC00FB68DB431A40831C41F823200D48BB79A7
:100ECC009B08DBB21C460B4ABB799B08DBB2023396
:100EDC0052F82320F979BB7903F003039B0001FA44
:100EEC0003F31A43A31C40F8232000BF1037BD4660
:100EFC0090BC70470000014080B483B000AF7860B4
:100F0C00034A7B68136000BF0C37BD4680BC70473A
:100F1C00DC00204280B400AF154A154B1B6843F02F
:100F2C00010313601249124B5A68124B13404B6069
:100F3C000F4A0F4B1B6823F0847323F48033136028
:100F4C000B4A0B4B1B6823F480231360084A084B95
:100F5C005B6823F4FE035360054B4FF41F029A6049
:100F6C00054B4FF000629A6000BFBD4680BC7047D5
:100F7C00001002400000FFF800ED00E080B485B0E6
:100F8C0000AF0023FB600023BB6000237B602C4B75
:100F9C005B6803F00C03FB60FB68042B07D0082B89
:100FAC0009D0002B33D1274B274A1A6033E0254B4D
:100FBC00254A1A602FE0224B5B6803F47013BB6068
:100FCC001F4B5B6803F480337B60BB689B0C023364
:100FDC00BB607B68002B06D1BB681C4A02FB03F389
:100FEC00184A136017E0164B5B6803F40033002BB0
:100FFC0006D0BB68154A02FB03F3124A13600AE0E1
:10100C00BB68114A02FB03F30E4A136003E00D4B5D
:10101C000D4A1A6000BF0A4B5B6803F0F0031B0912
:10102C000B4AD35CFB60074B1A68FB6822FA03F38C
:10103C00044A136000BF1437BD4680BC704700BF24
:10104C00001002401400002000127A0000093D003C
:10105C008412000880B485B000AF78600023FB6078
:10106C0002E0FB680133FB607B6842F2107202FB0A
:10107C0003F2FB689A42F4DC00BF1437BD4680BC17
:10108C00704700BF80B582B000AF01211020FFF780
:10109C0033FB00211020FFF76BFB4FF40053BB8098
:1010AC000323BB711423FB713B1D19460948FFF741
:1010BC00BBFC4FF400510748FFF7D2FD6420FFF74B
:1010CC00C9FF4FF400510348FFF7D8FD6420FFF728
:1010DC00C1FFEEE70010014070B50F4E0F4D761BAF
:1010EC00B61018BF002405D0013455F8043B9847BE
:1010FC00A642F9D10A4E0B4D00F0B2F8761BB61091
:10110C0018BF002406D0013455F8043B9847A6427A
:10111C00F9D170BD70BD00BF9C1200089C12000874
:10112C00A41200089C120008024B13B1024800F0F4
:10113C0005B8704700000000551100080023014657
:10114C001A46184600F014B838B5074D074C2C1B3E
:10115C00A41005D0013C55F8043D9847002CF9D15A
:10116C00BDE8384000F082B8A8120008A4120008AC
:10117C002DE9F047254C064625688846D5F84841A8
:10118C0092469946C4B360681F2817DC411C76B19F
:10119C0004EB8003C3F888A0D4F888510122824064
:1011AC001543022EC4F88851C3F808911ED0831C35
:1011BC006160002044F82380BDE8F087144B03B332
:1011CC004FF4C870AFF300800446D0B1D5F8483165
:1011DC00002784E888003846C5F848410121C4F846
:1011EC008871C4F88C71002EE1D0D1E7D4F88C3121
:1011FC001A43C4F88C21DAE705F5A674C5F8484102
:10120C00C1E74FF0FF30BDE8F08700BF981200082F
:10121C0000000000002103E00B4B5B5843500431ED
:10122C000A480B4B42189A42F6D30A4A02E00023B2
:10123C0042F8043B084B9A42F9D3FFF76BFEFFF7D9
:10124C004BFFFFF71FFF7047A8120008000000209B
:10125C0040040020400400205C040020FEE7000055
:10126C00F8B500BFF8BC08BC9E467047F8B500BF87
:08127C00F8BC08BC9E46704757
:101284000000000000000000010203040607080932
:081294004300000018000020D7
:08129C003511000831010008C2
:0412A4000D01000830
:1012A8000000000001020304010203040607080904
:1012B8000204060800A24A040000000004030020FB
:1012C8006C030020D4030020000000000000000090
:1012D8000000000000000000000000000000000006
:1012E8000000000000000000000000009412000848
:1012F80000000000000000000000000000000000E6
:1013080000000000000000000000000000000000D5
:1013180000000000000000000000000000000000C5
:1013280000000000000000000000000000000000B5
:1013380000000000000000000000000000000000A5
:101348000000000000000000000000000000000095
:101358000000000000000000000000000000000085
:1013680001000000000000000E33CDAB34126DE622
:10137800ECDE05000B00000000000000000000008B
:101388000000000000000000000000000000000055
:101398000000000000000000000000000000000045
:1013A8000000000000000000000000000000000035
:1013B8000000000000000000000000000000000025
:0400000508001221BC
:00000001FF
